:020000040800F2
:1000000050090020450100080D240008792100084E
:10001000C5230008190A0008232C0008000000006E
:10002000000000000000000000000000DD260008C5
:10003000C10A000800000000252500080D2800085E
:100040005F0100085F0100085F0100085F01000810
:100050005F0100085F0100085F0100085F01000800
:100060005F0100085F0100085F0100085F010008F0
:100070005F0100085F0100085F0100085F010008E0
:100080005F0100085F0100085F0100085F010008D0
:100090005F0100085F0100085F010008C30A000853
:1000A0005F0100085F0100085F0100085F010008B0
:1000B0005F0100085F0100085F0100085F010008A0
:1000C0005F0100085F0100085F0100085F01000890
:1000D0005F0100085F0100085F0100085F01000880
:1000E0005F0100085F0100085F0100085F01000870
:1000F0005F0100085F0100085F0100085F01000860
:100100005F0100085F0100085F0100085F0100084F
:100110005F0100085F0100085F0100085F0100083F
:100120005F0100085F0100085F0100085F0100082F
:10013000DFF80CD000F0C2FB004800477F3C00080D
:10014000500900200648804706480047FEE7FEE7C2
:10015000FEE7FEE7FEE7FEE7FEE7FEE7FEE7FEE777
:10016000A928000831010008202A04DB203A21FADE
:1001700002F00021704721FA02F3D040C2F12002C0
:10018000914008431946704740EA01039B0703D09A
:1001900009E008C9121F08C0042AFAD203E011F8C6
:1001A000013B00F8013B521EF9D27047D2B201E088
:1001B00000F8012B491EFBD270470022F6E710B56C
:1001C00013460A4604461946FFF7F0FF204610BDC5
:1001D00080EA010210B502F00043400022D04A003C
:1001E0001FD0010E01EB1261C0F35600C2F356029C
:1001F00040F4000042F40002A0FB022000047F391A
:10020000140400D0401C50EA124001D44000491EA2
:10021000C2B20C0604EBD010401C4008802A02D069
:1002200003E0002010BD20F00100002900DA0020CA
:10023000184310BD2DE9FE4F804681EA0300C00F30
:100240000C46009021F0004123F00045B8EB02007D
:10025000A94105D24046214690461C460B4602461F
:1002600023F00040104347D0270DC7F30A00C3F323
:100270000A510290401A019040286BDAC3F3130030
:1002800040F4801B0098924620B10023D2EB030A71
:1002900063EB0B0B01985946C0F14002504600F049
:1002A000EEF906460D4650465946019A00F0F6F919
:1002B00010EB08006141002487EA115284EAE773D9
:1002C0001A4340D0009A62B3019A012A4FEA0752BA
:1002D00015DC001B61EB02014FF0004202EA0752FD
:1002E000CDE90042001C41F5801132462B4600F05A
:1002F0002DFA03B0BDE8F08F40462146F9E7001B18
:1003000061EB0201001C41F5801300185B412018CD
:10031000A2F5001747EB030140EAD570B6196D410D
:1003200011E06D084FEA360645EAC0754FEA0752FC
:10033000001B61EB0201001C41F5801149084FEAE6
:1003400030000019514132462B4603B0BDE8F04F52
:1003500000F0EDB90098012240000023D0EB02022A
:1003600063EBE073009821464FEAE074B8EB0000BD
:1003700061EB0401E9E783F000435BE781F00041B2
:1003800058E72DE9FE4F81EA030404F0004421F010
:10039000004100944FF0000B23F0004350EA0104A9
:1003A0005ED052EA03045BD0C3F30A54C1F30A558A
:1003B0002C44A4F2F3340194A0FB0254C1F31301C2
:1003C00041F48011C3F3130343F4801301FB02448F
:1003D00000FB034E840A970A44EA815447EA835794
:1003E000A4FB076802958D0A05FB07854FEA932C4D
:1003F00004FB0C542705029D4FEA065847EA1637BE
:10040000B5EB08056EEB070C870E920E47EA8117D5
:1004100042EA8312A7FB0201B6EB0B0164EB000476
:100420002B0D43EA0C335E1844EB1C50DA46514660
:10043000E7FB0201C5F313044FEA0B3343EA1453FD
:100440004FEA0432019C43EA0603A4F10C0402942F
:10045000009CCDE900B400F079F903B0BDE8F08F5D
:1004600000200146F9E72DE9F04D81EA030404F08C
:10047000004B21F0004514464FF0000A23F00041E4
:1004800050EA050220D054EA01021DD0C5F30A57F4
:100490000246C5F31303C1F31300C1F30A5640F437
:1004A000801543F48013A7EB0608101BD64608F20C
:1004B000FD3873EB050002D308F1010801E0921842
:1004C0005B41B8F1000F03DA00200146BDE8F08D72
:1004D00000204FF48011064684460EE0171B73EB94
:1004E000050705D3121B63EB050306434CEA010C19
:1004F00049084FEA300092185B4150EA0107EDD1FC
:1005000052EA030012D082EA040083EA050108439C
:1005100005D0101BAB4106D20122002306E00022C9
:100520004FF0004302E06FF0010253101AEB060097
:100530004CEB085110EB0A0041EB0B01BDE8F04D0C
:1005400000F0F5B896230022114600F0C2B800F082
:10055000004230F000400AD0C10D01F56071C0F3D7
:10056000160042EA0151C2084007114370470020BB
:100570000146704730B5041E71F1000404DB4FF0F2
:100580000044404264EB0101141E73F1000405DBDA
:100590001C464FF00043524263EB0403994208BFEC
:1005A000904230BD01F0004330B421F0004150EAE8
:1005B000010206D00A0DA2F56072C1F31301002AF0
:1005C00002DC30BC00207047440F44EAC104C10083
:1005D000E01830BC00EBC25000F072B8002801DB1C
:1005E000C0F10040002901DBC1F1004188427047A1
:1005F00030B50B46014600202022012409E021FAF3
:1006000002F59D4205D303FA02F5491B04FA02F5EF
:100610002844151EA2F10102F1DC30BD2DE9F05F86
:100620000546002092469B46884606468146402461
:100630001BE02846414647462246FFF795FD5346B4
:100640005A46C01A914110D311461846224600F06E
:1006500016F82D1A67EB01084F46224601200021AB
:1006600000F00DF817EB00094E41201EA4F1010423
:10067000DFDC484631462A464346BDE8F09F202A43
:1006800004DB203A00FA02F1002070479140C2F1E9
:10069000200320FA03F3194390407047202A06DB19
:1006A000CB17203A41FA02F043EAE07306E041FA40
:1006B00002F3D040C2F1200291400843194670472E
:1006C0000029A8BF7047401C490008BF20F0010066
:1006D000704710B4B0FA80FC00FA0CF050EA010444
:1006E00004BF10BC704749B1CCF1200421FA04F4D6
:1006F00011FA0CF118BF012121430843A3EB0C01AF
:10070000CB1D4FEA00614FEA102042BF002010BC11
:10071000704700EBC35010440029A4BF10BC7047C1
:10072000401C490008BF20F0010010BC704710B504
:10073000141E73F1000408DA401C41F10001921804
:100740005B411A4301D120F0010010BD2DE9F04DAD
:1007500092469B4611B1B1FA81F202E0B0FA80F202
:1007600020329046FFF78BFF04460F4640EA0A000E
:1007700041EA0B0153465A46084313D0114653EA47
:10078000010019D0C8F140025046FFF7EDFC0546C4
:100790000E46504659464246FFF771FF084305D0C2
:1007A000012004E020463946BDE8F08D00200543D5
:1007B00046EAE0762C4337430A986305E40AA0EB47
:1007C00008000022FD0A44EA47540A3002D50020FE
:1007D0000146E9E7010510196941DDE908450019FD
:1007E0006941BDE8F04DA2E72DE9F04D00231A461E
:1007F0001B1A8A4103DB00200146BDE8F08DC1F3DE
:100800000A52C1F3130141F480154FF0000BD107D8
:1008100002D100186D41521E0027044640F2FF111C
:10082000384601EB620A3E468046024600204FF4FD
:100830008011FFF799FCC2197141BB1846EB01000A
:10084000B4EB030C75EB000C04D3E41A65EB000564
:1008500017460E46241908F101006D4180463428E0
:10086000E3DDF91946EB0600091BA84103D24FF05E
:10087000FF32134601E0002213461BEB070046EB54
:100880000A51BDE8F04DFFF752BFC1F30A52C1F360
:10089000130140F2FF3341F480119A4202DA002042
:1008A0000146704740F233439A42A2F2334202DCDF
:1008B0005242FFF759BCFFF7E2BE0000064C074D5D
:1008C00006E0E06840F0010394E807009847103420
:1008D000AC42F6D3FFF730FC1C3F00083C3F000859
:1008E00070B521F0004303430CD0C1F30A55002436
:1008F000D5EB040564EB0403D617AD1AB34102DB54
:100900000020014670BD201841EB025170BD0EB5AC
:10091000C10F80EAE0700844CA07002140F2334367
:100920008DE80E000A460B46FFF710FF03B000BD2E
:100930000EB540F2334102910021CDE900110A4683
:100940000B46FFF703FF03B000BD70B5C1F30A52B9
:1009500001F000450024C1F3130140F2FF3341F4DC
:1009600080119A4201DA002070BD40F233439A426E
:10097000A2F2334203DC5242FFF7F6FB00E0904064
:100980002C43F1D0404270BD70B50446002520686C
:10099000806800F00100F0B12068806820F001005C
:1009A0002168886000F00AFD05460EE000F006FDB3
:1009B000401B022809D9A06A40F01000A062E06A3A
:1009C00040F00100E062012070BD2068806800F006
:1009D00001000028EAD10020F6E7000010B5064922
:1009E00006A002F021F900F05FF901F0C7FB01F069
:1009F0009BFD00F067F910BDA43D0008434420258D
:100A0000730D0A0010B500F05BF901F0C5FB01F0B1
:100A100097FD00F063F910BD00BFFEE72DE9F04738
:100A200086B08246DAF80C10CAF8181000201F4968
:100A300003F086F980468946DAF81000FFF787FD53
:100A4000064600224FF08043FFF79BFC04460D460C
:100A5000DAF80C00FFF77BFD22462B46CDE90001BA
:100A6000FFF7E8FB42464B46CDE90201FFF7FBFCEE
:100A7000CDE90401FFF796FDCAF81C00DAF818006A
:100A8000FFF765FD044622460B4609A002F0CCF8AC
:100A9000DAF81C00FFF75BFD044622460B4606A071
:100AA00002F0C2F806B0BDE8F08700000000084080
:100AB000313A25660D0A0000323A25660D0A00001B
:100AC000704710B5402000F0BDFA802000F0BAFA5F
:100AD0004FF4807000F0B6FA01F076FC10BD70475C
:100AE00070B504460D496068FFF772FB05460C4A75
:100AF00021681268501AFFF725FD06462946FFF7C0
:100B00006DFD01D8012000E0002028B104480068F4
:100B10002060204600F00EF870BD000000007A440E
:100B20008C00002010B50248FFF7DAFF10BD00006E
:100B3000900000202DE9FC478246DAF80800FFF714
:100B400006FD064600224A4BFFF774FB0446FFF7FA
:100B500029FDCAF80800DAF80800FFF7F8FC044697
:100B60000022444BFFF706FD02D80020CAF8080017
:100B7000DAF80800FFF7EBFC064600223D4BFFF7D2
:100B800072FC044600224FF08043FFF7FAFB8046D8
:100B9000394A3A4BFFF7F5FBCDE90001FFF702FDBB
:100BA000CAF83000DAF83000FFF7D1FC064603F04F
:100BB00077F80446FFF7F6FCCAF80C00DAF83000C4
:100BC000FFF7C5FC80462E4A2E4BFFF7D4FB0646A6
:100BD00003F066F80446FFF7E5FCCAF81000DAF8FF
:100BE0003000FFF7B4FC0646254A264BFFF722FBF0
:100BF000044603F055F88046FFF7D4FCCAF8140009
:100C0000DAF80C00FFF7A3FC044622460B461EA0B0
:100C100002F00AF8DAF81000FFF799FC04462246C1
:100C20000B461BA002F000F8DAF81400FFF78FFC67
:100C3000044622460B4618A001F0F6FFDAF8300011
:100C4000FFF785FC044622460B4615A001F0ECFF99
:100C50005046FFF7E3FEDAF81800CAF82000DAF889
:100C60001C10CAF82410504601F0D2FBBDE8FC87E6
:100C70000000F03F008076404AD8124DFB21094029
:100C800087E5613352C10040353A25660D0A000000
:100C9000363A25660D0A0000373A25660D0A00002F
:100CA000383A25660D0A000010B5024902A001F08D
:100CB000BBFF10BDD23D000843442025730D0A0040
:100CC0007047000010B5024902A001F0ADFF10BD51
:100CD000E13D000843442025730D0A0010B5FFF7DD
:100CE00021FF10BD38B5024600230020009000BF50
:100CF00092F82400012801D1022038BD012082F899
:100D0000240000BF4868072812D21068406B0C7995
:100D1000641E04EB84051F24AC40A0430D796D1EB6
:100D200005EB85050C68AC4020431468606327E040
:100D300048680D2812D21068006B0C79E41F04EB90
:100D400084051F24AC40A0430D79ED1F05EB8505FC
:100D50000C68AC4020431468206311E01068C06A3E
:100D60000C790D3C04EB84051F24AC40A0430D79A5
:100D70000D3D05EB85050C68AC4020431468E0622E
:100D800008680A2812D31068C0680C780A3C04EB83
:100D900044050724AC40A0430D780A3D05EB45050A
:100DA0008C68AC4020431468E0600FE01068006974
:100DB0000C7804EB44050724AC40A0430D7805EB08
:100DC00045058C68AC4020431468206108681028F1
:100DD00002D00868112827D1174C1068A0421ED1F4
:100DE0001068806800F40000F0B91068806840F472
:100DF00000001468A0600868102815D10F4800682A
:100E00000F4CB0FBF4F000EB80004000009002E0DB
:100E10000098401E009000980028F9D104E0906AE4
:100E200040F020009062012300BF002082F82400DF
:100E300000BF184661E70000002401400C000020BC
:100E400040420F002DE9F04104460027002500260E
:100E5000A84614B90120BDE8F081A06810B1207D3A
:100E600000B100BFA06A30B90020E06284F824001D
:100E7000204600F097F82046FFF786FD0746A06A57
:100E800000F01000002873D1002F7ED1A06A20F45A
:100E9000885040F00200A0623F4AD4E9000190422D
:100EA00008D1E069B0F5402F02D14FF4002002E0F4
:100EB000E06900E0E0690143207B41EA400006432D
:100EC000A068B0F5807F02D0A068012802D14FF45D
:100ED000807000E000200543207D012811D1207B97
:100EE00038B9A069401E4FF4006141EA4030054323
:100EF00007E0A06A40F02000A062E06A40F0010034
:100F0000E0622068406820F4694028432168486016
:100F10002068806821490840304321688860A068C3
:100F2000B0F5807F02D0A068012802D14FF4807014
:100F300000E00020B0F5807F03D1208A401E4FEAF8
:100F400000582068C06A20F4700040EA0800216858
:100F5000C8622068806812490840B04209D1002068
:100F6000E062A06A20F0020040F00100A06211E0FF
:100F70000BE0A06A20F0020040F01000A062E06ADE
:100F800040F00100E062012704E0A06A40F0100098
:100F9000A062012738465EE7003C0140FDF7E1FF13
:100FA000FE0E1FFF10B586B004460020029003908D
:100FB000049005901E492068884237D100BF1D4823
:100FC000806940F400701B4988610846806900F41C
:100FD0000070019000BF00BF00BF0846806940F06C
:100FE000100088610846806900F01000019000BF81
:100FF00000BF00BF0846806940F0040088610846D1
:10100000806900F00400019000BF00BF1120029031
:101010000320039002A9084800F022F8C0200290A3
:101020000320039002A9054800F01AF806B010BD8D
:10103000002401400010024000100140000801405F
:101040007047000010B5044604480068204020B1F5
:10105000024804602046FFF7F3FF10BD140401406E
:101060002DE9F847024600239C467BE14FF001083A
:1010700008FA03F4D1F8008008EA0400A0427DD108
:10108000DFF8F4A2D1F80480A8EB0A09D0453AD0E1
:1010900014DCB8F1030F50D009DCB8F1000F31D0E7
:1010A000B8F1010F1CD0B8F1020F49D120E0B8F11E
:1010B000110F18D0B8F1120F42D11EE0B9F5881FF8
:1010C00025D006DCB9F5803F20D0B9F5801F37D197
:1010D0001AE0B9F5001F18D0B9F5041F30D117E098
:1010E000D1F80CC02DE0D1F80C8008F1040C28E0F8
:1010F000D1F80C8008F1080C23E0D1F80C8008F13D
:101100000C0C1EE000BF00BF00BF00BF00BF00BF4F
:10111000D1F80880B8F1000F02D14FF0040C0BE0B9
:10112000D1F80880B8F1010F03D14FF0080C146119
:1011300002E04FF0080C546103E04FF0000C00E0B7
:1011400000BF00BFFF2801D8904601E002F104086B
:101150004646FF2802D84FEA830803E0A3F10808B7
:101160004FEA88084746D6F800804FF00F0909FA81
:1011700007F928EA09080CFA07F900E07AE048EADA
:101180000908C6F80080D1F8048008F08058B8F14A
:10119000805F6FD100BFDFF8E481D8F8188048F095
:1011A0000108DFF8D891C9F81880C846D8F8188027
:1011B00008F00108CDF8008000BF00BF4FEAB93841
:1011C0004FEA930958F829504FEA83784FEA187983
:1011D0004FF00F0808FA09F825EA0805DFF8A081A2
:1011E000424502D14FF0000824E0DFF898814245E3
:1011F00002D14FF001081DE0DFF88C81424502D199
:101200004FF0020816E0DFF88481424502D14FF02A
:1012100003080FE0DFF87881424502D14FF004085F
:1012200008E0DFF87081424502D14FF0050801E087
:101230004FF006084FEA83794FEA197908FA09F85E
:1012400048EA0505DFF850814FEA930948F829502C
:10125000D1F8048008F48038B8F5803F0BD1DFF86E
:101260003C81D8F8008048EA0008DFF83091C9F8DE
:1012700000800AE075E0DFF82481D8F8008028EAD1
:101280000008DFF81891C9F80080D1F8048008F44C
:101290000038B8F5003F0ED1DFF8008108F10408EE
:1012A000D8F8008048EA0008DFF8F09009F1040956
:1012B000C9F800800DE0DFF8E48008F10408D8F8F0
:1012C000008028EA0008DFF8D49009F10409C9F881
:1012D0000080D1F8048008F48018B8F5801F0ED182
:1012E000DFF8B88008F10808D8F8008048EA00085C
:1012F000DFF8A89009F10809C9F800800DE0DFF8CF
:101300009C8008F10808D8F8008028EA0008DFF877
:101310008C9009F10809C9F80080D1F8048008F41C
:101320000018B8F5001F0ED1DFF8708008F10C0826
:10133000D8F8008048EA0008DFF8609009F10C094D
:10134000C9F800800DE0DFF8548008F10C08D8F8E7
:10135000008028EA0008DFF8449009F10C09C9F878
:1013600000805B1CD1F8008028FA03F8B8F1000F68
:101370007FF47CAEBDE8F887000011100010024039
:1013800000080140000C0140001001400014014021
:1013900000180140001C0140080001400004014009
:1013A000024693680B400BB1012000E0002070471B
:1013B0000AB1016101E00B04036170470148006854
:1013C00070470000000000200348006803490978C6
:1013D0000844014908607047000000200800002010
:1013E00010B50848006840F0100006490860032066
:1013F00000F0A8F8002000F007F800F02BF800201B
:1014000010BD00000020024070B504460E48007870
:101410004FF47A71B1FBF0F00C490968B1FBF0F5BB
:10142000284600F07DFC08B1012070BD102C07D2C9
:1014300000222146501E00F047F80548046001E0F4
:101440000120F2E70020F0E7080000200C00002057
:101450000400002008B500BF1148806940F0010079
:101460000F4988610846806900F00100009000BFC4
:1014700000BF00BF0846C06940F08050C861084600
:10148000C06900F08050009000BF00BF00BF054958
:10149000486820F0E06040F00070486000BF08BD80
:1014A000001002400000014001460846002809DB08
:1014B00000F01F0301229A4043099B0003F1E0233F
:1014C000C3F8002100BF70472DE9F05F80460D464C
:1014D0001646002701F0CCFB074639462A4633461C
:1014E00001F00700C0F1070ABAF1040F02D94FF06A
:1014F000040A01E0C0F1070AD14600F1040ABAF17A
:10150000070F02D24FF0000A01E0A0F1030AD4460F
:101510004FF0010A0AFA09FAAAF1010A0AEA020AD4
:101520000AFA0CFA4FF0010B0BFA0CFBABF1010BB2
:101530000BEA030B4AEA0B042146404601F0A0FBEC
:10154000BDE8F09F00BF00F00702064B19684FF698
:10155000FF031940044B0B4343EA0221014B19607E
:1015600000BF70470CED00E00000FA05F8B5044636
:1015700000260025207800F0010000286BD000270D
:101580004348C06900F0805070B900BF4048C0694E
:1015900040F080503E49C8610846C06900F0805064
:1015A000009000BF00BF01273A48006800F4807037
:1015B000B0B93848006840F4807036490860FFF7D9
:1015C000FDFE064606E0FFF7F9FE801B642801D900
:1015D0000320F8BD2F48006800F480700028F2D086
:1015E0002B48006A00F440752DB3A08800F44070C9
:1015F000A84220D02648006A20F4407501202649E0
:101600000860002008602248056205F0010090B1E2
:10161000FFF7D4FE064608E0FFF7D0FE801B41F23C
:101620008831884201D90320D3E71948006A00F0C5
:1016300002000028F0D01648006A20F4407061686B
:10164000084313490862012F04D10846C06920F0FD
:101650008050C86100BF207800F00200022807D146
:101660000B48406820F44040A1680843084948609E
:10167000207800F01000102807D10548406820F4B9
:10168000800061690843024948600020A1E700002A
:1016900000100240007000404004424270B5044611
:1016A0000D460CB9012070BD5A48006800F00700D3
:1016B000A8420ED25748006820F007002843554939
:1016C00008600846006800F00700A84201D0012029
:1016D000E9E7207800F0020002281DD1207800F010
:1016E0000400042805D14C48406840F4E0604A49B1
:1016F0004860207800F00800082805D14648406876
:1017000040F46050444948604348406820F0F0008D
:10171000A168084340494860207800F0010078B390
:101720006068012806D13C48006800F4003090B998
:101730000120B8E76068022806D13748006800F049
:10174000007040B90120AEE73348006800F00200A5
:1017500008B90120A7E73048406820F0030061681D
:1017600008432D494860FFF729FE064609E0FFF7C8
:1017700025FE801B41F28831884202D9032092E77E
:1017800007E02548406800F00C006168B0EB810F6D
:10179000EDD12048006800F00700A8420ED91D488E
:1017A000006820F0070028431A49086008460068CE
:1017B00000F00700A84201D0012074E7207800F073
:1017C0000400042807D11448406820F4E060E16870
:1017D000084311494860207800F00800082808D123
:1017E0000D48406820F46050216940EAC1000A4970
:1017F000486000F019F808494968C1F30311074A25
:10180000515CC8400649086006480068FFF7FCFDC7
:10181000002048E700200240001002408C3D0008F4
:101820000C00002004000020F0B585B00FF26C0C15
:101830009CE8E01001A8A0E8E0101CA52D68009528
:1018400000210022002300240020194D696801F0C6
:101850000C05F5B1042D02D0082D19D101E0154871
:1018600019E001ADC1F38346AC5D01F4803555B19B
:101870000F4D6D68C5F340451DF805200D4D6543BE
:10188000B5FBF2F302E00C4D04FB05F3184602E051
:1018900000BF084800BF00BF05B0F0BD020304054B
:1018A000060708090A0B0C0D0E0F101001020000AC
:1018B0000010024000127A0000093D00F8B504460D
:1018C0000CB90120F8BD207800F00100002878D084
:1018D000F848406800F00C0004280CD0F548406837
:1018E00000F00C00082811D1F248406800F4803064
:1018F000B0F5803F0AD1EF48006800F400300028BE
:101900005FD0606800285CD10120DBE700BF606821
:10191000B0F5803F06D1E748006840F48030E549E3
:10192000086028E0606858B9E248006820F4803018
:10193000E04908600846006820F4802008601AE04A
:101940006068B0F5A02F0BD1DA48006840F4802021
:10195000D84908600846006840F4803008600AE012
:10196000D448006820F48030D249086008460068F6
:1019700020F48020086000BF606888B1FFF71EFD7A
:10198000054606E0FFF71AFD401B642801D9032035
:1019900098E7C848006800F400300028F2D010E052
:1019A000FFF70CFD054606E0FFF708FD401B642825
:1019B00001D9032086E7BF48006800F40030002802
:1019C000F2D1207800F00200022857D1B9484068CF
:1019D00000F00C0050B1B748406800F00C00082837
:1019E00018D1B448406800F4803098B9B148006814
:1019F00000F0020020B12069012801D0012061E738
:101A0000AC48006820F0F800616940EAC100A949CB
:101A1000086033E02069E8B10120A7490860FFF7BA
:101A2000CDFC054606E0FFF7C9FC401B022801D9A2
:101A3000032047E79F48006800F002000028F2D02A
:101A40009C48006820F0F800616940EAC1009949AB
:101A5000086013E0002098490860FFF7AFFC0546D6
:101A600006E0FFF7ABFC401B022801D9032029E761
:101A70009048006800F002000028F2D1207800F0C1
:101A8000080008282DD1A069B8B101208B49086051
:101A9000FFF794FC054606E0FFF790FC401B022888
:101AA00001D903200EE78348406A00F002000028B5
:101AB000F2D0012000F046FD13E000207F490860CD
:101AC000FFF77CFC054606E0FFF778FC401B022888
:101AD00001D90320F6E67748406A00F002000028AA
:101AE000F2D1207800F00400042873D10027714857
:101AF000C06900F0805070B900BF6E48C06940F006
:101B000080506C49C8610846C06900F08050009060
:101B100000BF00BF01276A48006800F48070B0B9B8
:101B20006748006840F4807065490860FFF746FC2C
:101B3000054606E0FFF742FC401B642801D903205C
:101B4000C0E65F48006800F480700028F2D000BF53
:101B5000E068012806D15748006A40F00100554965
:101B6000086227E0E06858B95248006A20F0010096
:101B7000504908620846006A20F00400086219E033
:101B8000E06805280BD14B48006A40F00400494941
:101B900008620846006A40F0010008620AE0454811
:101BA000006A20F00100434908620846006A20F0FC
:101BB0000400086200BFE068A0B1FFF7FFFB054624
:101BC00009E0FFF7FBFB401B41F28831884202D954
:101BD000032077E622E03748006A00F00200002880
:101BE000EFD012E0FFF7EAFB054608E0FFF7E6FB5F
:101BF000401B41F28831884201D9032062E62D481A
:101C0000006A00F002000028F0D1012F05D1294818
:101C1000C06920F080502749C86100BFE069C8B39F
:101C20002448406800F00C00082860D0E0690228D1
:101C300048D1002020490866FFF7C0FB054606E0B2
:101C4000FFF7BCFB401B022801D903203AE61948E4
:101C5000006800F000700028F2D1206AB0F5803FE3
:101C600007D11448406820F40030A16808431149A6
:101C70004860D4E9080108430E49496821F4741109
:101C800008430C49486001200B490866FFF796FBA2
:101C9000054607E03DE0FFF791FB401B022801D914
:101CA00003200FE60348006800F000700028F2D01F
:101CB0002FE0000000100240000042428004424237
:101CC00000700040002014490866FFF777FB0546C6
:101CD00006E0FFF773FB401B022801D90320F1E562
:101CE0000E48006800F000700028F2D111E0E069B1
:101CF000012800D1E6E50948466806F48031206AEB
:101D0000814204D106F47011606A814201D0012041
:101D1000D8E50020D6E50000000042420010024055
:101D200070B504462546681EB0F1807F01D30120BE
:101D30000FE0681E4FF0E02148610F214FF0FF30A7
:101D400000F09EFF00204FF0E0218861072008612D
:101D5000002070BD10B50346002200BF93F83C0080
:101D6000012801D1022010BD012083F83C0000BFF2
:101D700022F0FF00CC6840EA040222F440708C6834
:101D800040EA040222F480604C6840EA040222F433
:101D900000600C6840EA040222F480500C6940EABA
:101DA000040222F400504C6940EA040222F480400C
:101DB000CC6940EA04021868426400BF002083F83E
:101DC0003C0000BF00BFCEE710B5024600BF92F84E
:101DD0003C00012801D1022010BD012082F83C0006
:101DE00000BF022082F83D001068436810688468D4
:101DF00023F070030868034324F080044868044318
:101E00001068436010688460012082F83D0000BFC4
:101E1000002082F83C0000BF00BFDDE710B504469B
:101E20000CB9012010BD94F83D0028B9002084F8B9
:101E30003C00204600F00CF8022084F83D00211DF3
:101E4000206800F077FD012084F83D000020E9E7DC
:101E500008B5094A016891420DD100BF0749896957
:101E600041F40061054A91611146896901F40061FC
:101E7000009100BF00BF08BD002C014000100240CF
:101E80002DE9F04104460D4600BF94F83C000128BE
:101E900002D10220BDE8F081012084F83C0000BF9F
:101EA000022084F83D002068866826F0770626F434
:101EB0007F46206886602868502833D00CDC2028B4
:101EC00050D004DC00284BD0102851D149E03028F4
:101ED00049D040284CD139E060282DD0702807D057
:101EE000B0F5805F03D0B0F5005F41D10DE040E078
:101EF000D5E902136A68206800F07BFD20688668D7
:101F000046F077062068866033E0D5E902136A68F8
:101F1000206800F06EFD2068806840F480402168F1
:101F2000886026E0EA686968206800F053FE502166
:101F3000206800F069FD1CE0EA686968206800F02C
:101F40005CFE6021206800F05FFD12E0EA686968CD
:101F5000206800F03FFE4021206800F055FD08E0B9
:101F600000BF00BF00BF2968206800F04DFD00E001
:101F700000BF00BF012084F83D0000BF002084F8AE
:101F80003C0000BF00BF85E710B586B004460020C6
:101F900002900390049005900E492068884217D162
:101FA00000BF0D48806940F004000B498861084675
:101FB000806900F00400019000BF00BF4FF4E060B2
:101FC000029002200390059002A90448FFF748F808
:101FD00006B010BD002C0140001002400008014076
:101FE00070B504460D46164600BF94F83C00012823
:101FF00001D1022070BD012084F83C0000BF022006
:1020000084F83D0036B1042E1BD0082E31D00C2EA2
:102010005ED145E02946206800F000FD2068806917
:1020200040F00800216888612068806920F0040081
:10203000216888612068806929690843216888616E
:1020400047E02946206800F021FD2068806940F4BF
:102050000060216888612068806920F480602168C0
:10206000886120688069296940EA012021688861C7
:102070002FE02946206800F047FD2068C06940F045
:1020800008002168C8612068C06920F00400216848
:10209000C8612068C069296908432168C86118E0DF
:1020A0002946206800F06CFD2068C06940F400609B
:1020B0002168C8612068C06920F480602168C86117
:1020C0002068C069296940EA01202168C86100E0F0
:1020D00000BF00BF012084F83D0000BF002084F84D
:1020E0003C0000BF00BF85E710B504460CB90120D5
:1020F00010BD94F83D0028B9002084F83C0020462B
:1021000000F00CF8022084F83D00211D206800F04A
:1021100011FC012084F83D000020E9E77047000031
:1021200070B504460E4601223146206800F050FC8E
:102130000F492068884203D00E492068884201D1A7
:10214000012000E0002028B12068406C40F40040ED
:10215000216848642068806800F00705062D05D0D6
:102160002068006840F0010021680860002070BD10
:10217000002C01400034014000BFFEE710B50349C8
:1021800003A000F051FD00F0BBFB10BDAD3D000809
:1021900043442025730D0A00704700000EB500204F
:1021A00000900190029011481149086000211048E8
:1021B0008160017301754FF46021C16100200C49F9
:1021C000486001210A480161FEF73CFE08B1FEF7B4
:1021D00086FC062000900120019002906946044888
:1021E000FEF780FD08B1FEF77AFC0EBD0024014029
:1021F000CC00002000B585B0002001900290039033
:10220000049000BF2D48806940F020002B49886170
:102210000846806900F02000009000BF00BF00BFAA
:102220000846806940F0100088610846806900F027
:102230001000009000BF00BF00BF0846806940F05A
:10224000040088610846806900F00400009000BF27
:1022500000BF00BF0846806940F00800886108465A
:10226000806900F00800009000BF00BF00224FF41A
:1022700060411348FFF79CF84FF460400190012043
:10228000029003900320049001A90D48FEF7E8FE98
:102290004FF4E07001900B4802900020039001A9D8
:1022A0000948FEF7DDFE002211461720FFF70CF962
:1022B0001720FFF7F9F805B000BD0000001002403C
:1022C000000C0140000031100010014000B595B035
:1022D000002011901290139014900F9010901C21D8
:1022E00008A8FDF76AFF20216846FDF766FF33481E
:1022F00033490860002048600021314881604FF474
:10230000E151C16000210161416180218161FFF7DC
:1023100085FD08B1FEF7E3FB4FF48050119011A941
:102320002748FFF7ADFD08B1FEF7D9FB2448FFF7BA
:10233000DBFE08B1FEF7D3FB00200F9010900FA931
:102340001F48FFF741FD08B1FEF7C9FB6020089068
:10235000002009900A900B900C900D900E90002296
:1023600008A91748FFF73CFE08B1FEF7B8FB0422A6
:1023700008A91348FFF734FE08B1FEF7B0FB0822A6
:1023800008A90F48FFF72CFE08B1FEF7A8FB0020B4
:10239000009001900290039004904FF4005005903B
:1023A0000020079069460648FFF7D4FC08B1FEF705
:1023B00096FB0348FFF7E8FD15B000BD002C014077
:1023C000FC00002000BFFEE770B5002400250026B9
:1023D00040210C48FEF7E4FF044680210948FEF73F
:1023E000DFFF05464FF480710648FEF7D9FF064629
:1023F00044EA450040EA860003490870087800F086
:10240000A5F970BD00100140880000207047000051
:102410002DE9F04786B08246DAF83000FEF797F8EB
:10242000064601F03DFC04460D46DAF82400FEF7AE
:102430008EF8804622462B46FDF7A3FFCDE9020128
:10244000DAF83000FEF783F8804601F0BDFB044661
:102450000D46DAF82000FEF77AF8064622462B46AB
:10246000FDF78FFFCDE90001DDE90223FDF7E2FE74
:10247000CDE90401FEF796F8CAF82C00DAF830002E
:10248000FEF765F8804601F09FFB04460D46DAF83A
:102490002400FEF75CF8064622462B46FDF771FF46
:1024A000CDE90201DAF83000FEF751F8804601F07C
:1024B000F7FB04460D46DAF8200080F0004840465D
:1024C000FEF745F8064622462B46FDF75AFFCDE9B2
:1024D0000001DDE90223FDF7ADFECDE90401FEF7C1
:1024E00061F8CAF82800DAF82C00FEF730F8044644
:1024F00022460B4607A000F097FBDAF82800FEF70B
:1025000026F8044622460B4604A000F08DFB06B0D8
:10251000BDE8F087333A25660D0A0000343A256697
:102520000D0A00007047000010B5024902A000F03B
:102530007BFB10BDBC3D000843442025730D0A0001
:102540007047000008B508490968C9084FF47A7255
:10255000B1FBF2F14143009100BF00BF00994A1E58
:1025600000920029F9D108BD0C0000202DE9F047A8
:1025700004468946164600F056FB04EB44015648D3
:1025800000EBC100007D00F00300022827D004EB1F
:102590004401514800EBC100D0F8108004EB440125
:1025A0004D4800EBC100C068A8EB0000451E002D9F
:1025B00006DA04EB4401484800EBC100806805449A
:1025C000AE420CDD04EB4401434800EBC100007D4A
:1025D00000F0030010B90020BDE8F0872E460EB9C8
:1025E0000020F9E7002700BF04EB44013A4800EB64
:1025F000C100D0F8108004EB4401374800EBC10063
:10260000C068A8EB0000451E002D06DA04EB44016B
:10261000314800EBC1008068054404EB44012E48BA
:1026200000EBC10004EB440281682B4800EBC200C0
:10263000C068081AA84201DD28460CE004EB4401FA
:10264000254800EBC10004EB44028168224800EBFE
:10265000C200C068081A0546B54201DA284600E003
:102660003046054604EB44021B4901EBC20104EB72
:1026700044034A68184901EBC301C96850182A4647
:102680004946FDF781FD2F44A944761B04EB440124
:10269000114800EBC100C068411904EB44020E4828
:1026A00000EBC200C16004EB44010B4800EBC10029
:1026B000C16804EB4402084800EBC2008068814214
:1026C00006D1002104EB4402034800EBC200C160C4
:1026D000002E89D138467FE728000020704700008F
:1026E00041F28833984200DD184641F2883399421E
:1026F00000DD194641F288339A4200DD1A46054B47
:102700001B685863034B1B689963024B1B68DA63B1
:1027100070470000FC00002070B504460D461646C8
:1027200022464FF400510848FEF742FE2A464FF475
:1027300080410548FEF73CFE32464FF40041024816
:10274000FEF736FE70BD0000000C014010B50446D7
:10275000072C4DD2DFE804F04C10281C4004340054
:1027600000224FF4FA711046FFF7BAFF002211461B
:102770000120FFF7D1FF46E04FF4FA72002108462E
:10278000FFF7AEFF002211460120FFF7C5FF3AE038
:102790004FF4FA7200210846FFF7A2FF0022012140
:1027A0001046FFF7B9FF2EE0002211464FF4FA70F1
:1027B000FFF796FF002201211046FFF7ADFF22E050
:1027C000002211464FF4FA70FFF78AFF0122002120
:1027D0000846FFF7A1FF16E000224FF4FA711046F9
:1027E000FFF77EFF012200210846FFF795FF0AE070
:1027F000002211461046FFF773FF002211461046D3
:10280000FFF78AFF00BF00BF10BD000010B50448ED
:102810000068401C02490860FEF7D6FD10BD0000AC
:102820008C00002000B595B028210BA8FDF7C5FC51
:10283000142106A8FDF7C1FC18216846FDF7BDFC70
:1028400001200B9000040C9000200D9001200F90AF
:1028500002201290C10313914FF4E01114910BA8C0
:10286000FFF72CF808B1FEF73AF90F200690022086
:102870000790002008904FF48060099000200A9093
:10288000022106A8FEF70AFF08B1FEF728F9022088
:102890000090800302906846FEF768FE08B1FEF7DC
:1028A0001EF915B000BD00001148006840F001009D
:1028B0000F490860084640680E4908400C494860C6
:1028C000084600680C490840094908600846006845
:1028D00020F4802008600846406820F4FE0048602C
:1028E0004FF41F008860C803044908607047000067
:1028F000001002400000FFF8FFFFF6FE08ED00E0C8
:1029000010B500210A48FFF70BFC04210848FFF727
:1029100007FC08210648FFF703FC0020044909686A
:10292000486303490968886301490968C86310BDA1
:10293000FC00002010B50268204B98420ED0204BBE
:1029400098420BD0B0F1804F08D01E4B984205D072
:102950001D4B984202D01D4B984203D122F07002C9
:102960004B681A43154B98420ED0154B98420BD02A
:10297000B0F1804F08D0134B984205D0124B9842CB
:1029800002D0124B984203D122F44072CB681A4312
:1029900022F080034C6943EA040202608B68C36240
:1029A0000B688362054B984202D0054B984201D1D7
:1029B0000B6903630123436110BD0000002C01403B
:1029C000003401400004004000080040000C0040BA
:1029D00030B501F01F05012404FA05F3046A9C4395
:1029E0000462046A01F01F0502FA05F52C43046233
:1029F00030BD30B50C46816821F47F4142EA0325A1
:102A000025432943816030BD0A46816821F0700169
:102A100042F00703194381607047000030B5056A32
:102A200025F001050562026A4368846924F0700498
:102A300024F003040D682C4322F002028D682A431F
:102A4000104DA84200D103E00F4DA84206D100BFAF
:102A500022F00802CD682A4322F00402094DA84260
:102A600002D0094DA84207D123F4807323F40073E8
:102A70004D692B438D692B43436084614D684563E9
:102A8000026230BD002C01400034014030B5056ABF
:102A900025F010050562026A4368846924F4E04465
:102AA00024F440740D6844EA052422F020028D6865
:102AB00042EA0512124DA84200D103E0114DA8428E
:102AC00007D100BF22F08002CD6842EA051222F051
:102AD00040020B4DA84202D00A4DA84209D123F46E
:102AE000806323F400634D6943EA85038D6943EAFB
:102AF0008503436084614D688563026230BD0000D8
:102B0000002C01400034014030B5056A25F4807581
:102B10000562026A4368C46924F0700424F0030467
:102B20000D682C4322F400728D6842EA0522124D92
:102B3000A84200D103E0114DA84207D100BF22F402
:102B40000062CD6842EA052222F480620A4DA84262
:102B500002D00A4DA84209D123F4805323F4005334
:102B60004D6943EA05138D6943EA05134360C46167
:102B70004D68C563026230BD002C01400034014045
:102B800030B5056A25F480550562036A4468C26958
:102B900022F4E04222F440720D6842EA052223F456
:102BA00000538D6843EA0533084DA84202D0084D12
:102BB000A84204D124F480444D6944EA8514446059
:102BC000C2614D680564036230BD0000002C014005
:102BD0000034014030B50B461446026A056A25F000
:102BE00001050562816921F0F00141EA041122F03A
:102BF0000A021A438161026230BD30B50B461446A9
:102C0000056A25F0100505628169026A21F47041A8
:102C100041EA043122F0A00242EA03128161026219
:102C200030BD00BFFEE770470FB4054B10B503A9D8
:102C3000044A029800F030FC10BC5DF814FB000060
:102C4000653C0008C4000020490050EAC12018BFBC
:102C500004204A0D18BF40F0010040F2FF72B2EBB1
:102C6000515F08BF40F00200012808BF05207047EF
:102C700002480068C0F30220704700000CED00E03D
:102C800010B5002804DB0A07130E054A135406E0AA
:102C90000A07140E034A00F00F031B1FD45410BD83
:102CA00000E400E018ED00E02DE9F74F144694B081
:102CB0000021C4E902111599079121F00045C94985
:102CC0008D4206DC1599C4E9000117B00020BDE86B
:102CD000F08FC549DFF814A3A9423CDD0799C44E23
:102CE0000029C44FC44A1599534619DDFDF743FB2B
:102CF000554506D0C14AC24BFDF73DFBC4E9000172
:102D00000AE04FF0D352BE4BFDF735FB32463B464F
:102D1000FDF731FBC4E9000117B00120BDE8F08FD9
:102D2000FDF788FA554506D0B44AB54BFDF782FA4F
:102D3000C4E900010AE04FF0D352B14BFDF77AFA33
:102D400032463B46FDF776FAC4E9000117B04FF072
:102D5000FF30BDE8F08FAB49A942159978DB21F02F
:102D6000004183468846A84AA84BFDF70AFB00228B
:102D7000A74BFDF75FFAFDF7E8FD0990FDF7C7FDEA
:102D800006460F469C4A5346FDF7FBFA43465A4611
:102D9000FDF7F4FA80468A46984A994B3046394600
:102DA000FDF7EFFA2A0D01250B9242465346FDF737
:102DB000E5FA032DC4E9000139D00B98C1F30A519B
:102DC000401A05EB45111139814230DA9148C3466A
:102DD000784400EB0510CDF80CA00C90D0E900234E
:102DE00030463946FDF7CDFA02460B46049106906F
:102DF00058460399FDF7BFFA80468A4602460B46BD
:102E000058460399FDF7B7FA049B069AFDF7B3FA03
:102E100083460C9803913946D0E902233046FDF7EA
:102E2000B0FA5A46039BFDF7A6FA6D1CBDE707985A
:102E30000028A2BF099817B0BDE8F08F616881F043
:102E400000416160099817B04042BDE8F08FFFE78C
:102E500084461598C1F31301C0F30A50A0F2F5306F
:102E60004FEA601800F01F06C6F120001390002002
:102E70000690079041F4801E05206D4676B1664AA3
:102E800008EB00017A4452F8213002EB8101B34093
:102E90004A68139922FA01F1194305E05F4908EBEA
:102EA0000002794451F82210A1FB0E27A1FB0C135C
:102EB0001A449A4234BF0123002303EB070A05EBAF
:102EC0008003D3E901B70F448F4234BF01210021B1
:102ED00093448B4411B1934502D903E0934501D249
:102EE000012100E00021C3E901B7514445F8201059
:102EF000011EA0F10100C1DC0298059F00F1005005
:102F0000800F12900298DDE903568000FDF7FFFC68
:102F1000834628460D91FDF70BFD6FF01D02FDF76E
:102F2000DFFCCDE90E013046FDF702FD6FF03D02FA
:102F3000FDF7D6FC80468A463846FDF7F9FC6FF06F
:102F40005D02FDF7CDFC0746424653461191FDF761
:102F500071F9DDE90E23FDF76DF95A460D9BFDF77A
:102F600069F900250E465A4628460D9BFDF703FADF
:102F7000DDE90E23FDF7FFF942465346FDF7FBF965
:102F80003A46119BFDF7FAF9DFF898A0244A534618
:102F9000FDF7F7F907468846234A244B3146284671
:102FA000FDF7EFF93A464346FDF744F907468846F0
:102FB0004FF0A842534631462846FDF7E2F93A461B
:102FC0004346FDF737F9159A12F0004F04D0129AD4
:102FD00081F0004152421292C4E90001129817B0E8
:102FE000BDE8F08FFB21E93F7CD90240FB21F93F8E
:102FF0007370032E8A19A33B000040543163621A98
:1030000061B4D03DFB21394183C8C96D305FE43FD5
:103010000000E03F4C100000C80F0000AA0F0000A5
:10302000182D4454FB21F93D3326A611460B113CC3
:103030002DE9FF4D21F0004807460C46B8F1795FB5
:1030400008DAFDF782FC002801BF0020324904B0F5
:10305000BDE8F08D3A46234610461946FDF791F932
:10306000054602462D480E460B460621784400F0E0
:103070005DF82A463346FDF784F9DDE902238246EE
:103080008B4638462146FDF77CF904460F465246EA
:103090005B4628463146FDF774F922463B46FDF76C
:1030A0006AF907468A464FF0FF3228463146FDF757
:1030B00017FC1B4A90450ADA3A465346FDF75BF97E
:1030C00004B00022BDE8F04D134BFDF757B9154A87
:1030D0004245A8BFA8F500154FF00004B8BF124D37
:1030E00022462B46FDF747F90646884622462B46E0
:1030F00000200949FDF73FF904460D463A4653467C
:1031000030464146FDF737F904B022462B46BDE86C
:10311000F04DFDF733B900000000F03F800D0000D6
:103120003333D33F0000E93F0000D23F2DE9F041A7
:103130004F1E00EBC7010446D1E9000115461E46AB
:1031400037F006020DD02A463346FDF71AF97F1EE6
:1031500004EBC703D3E90023FDF76CF837F0060250
:10316000F1D1022F25D0042F13D0062F18BFBDE8B0
:10317000F0812A463346FDF704F9D4E90A23FDF726
:1031800059F82A463346FDF7FCF8D4E90823FDF741
:1031900051F82A463346FDF7F4F8D4E90623FDF743
:1031A00049F82A463346FDF7ECF8D4E90423FDF745
:1031B00041F82A463346FDF7E4F8D4E90223FDF747
:1031C00039F82A463346FDF7DCF8D4E90023BDE898
:1031D000F041FDF72FB800002DE9FF4D054621F025
:1031E000004084B00C46B0F1795F0BDA2846FFF757
:1031F0002BFD042808BF00F06FF8284608B02146D0
:10320000BDE8F08D2A460B461046FDF7BAF8064693
:103210000F462A462346FDF7B4F8804626488A46DC
:1032200032463B4605217844FFF780FF83461098DD
:10323000029160B3214A224B40465146FDF7A1F866
:10324000CDE900015A4640465146029BFDF799F8E8
:1032500082468846DDE906014FF0FF32FDF740FB6C
:1032600052464346FDF787F832463B46FDF789F85C
:10327000DDE90623FDF77FF8DDE90023FDF77BF8A4
:1032800008B02A462346BDE8F04DFDF777B80B4657
:103290005A4630463946FDF774F8084A084BFCF7A1
:1032A000C9FF42465346FDF76CF808B02A4623464C
:1032B000BDE8F04DFCF7BEBFBE0C000049555555AA
:1032C0005555C5BF0122FDF70BBB00221346104622
:1032D0001146FDF7C8B80000024A00201107FDF7AB
:1032E000FFBA000001FDFFFF02E008C8121F08C17D
:1032F000002AFAD170477047002001E001C1121F77
:10330000002AFBD1704700000149086070470000A7
:10331000C80000202DE9FF5F82B00021DDE9043004
:10332000020DDDF840B0034318D044F61050A2F26D
:10333000FF3242431514119801281FD0A5EB0B0052
:10334000401C5FEA000A4FF000064E4FDFF838914C
:10335000B046504615D5CAF1000413E01198012477
:103360004AA3012801D16FEA0B010298119AC0E922
:103370000031C0E9024206B0BDE8F09FCBF1000089
:10338000DFE704460021404A491842EB0450CDE9EA
:10339000001012E0E00707D032463B46404649465F
:1033A000FCF7EFFF8046894632463B4610461946F9
:1033B000FCF7E7FF06460F466410002CEAD1DDE972
:1033C0000401DDE90023BAF1000F06DAFCF7D9FFAA
:1033D00042464B46FCF7D5FF05E0FDF744F8424670
:1033E0004B46FDF740F804460E460022284BFDF7F9
:1033F000C1F803D84FF0FF30014607E00022254B0B
:1034000020463146FCF716FFFDF73FFA102409E08D
:10341000002C0ADB0A220023FDF700F9039B30325F
:103420001A55641E50EA0102F2D1641C039AC4F1D9
:1034300011031444119A012A03D0012208430DD12B
:103440000AE0084304D000204FF0110B119072E7FE
:10345000A3EB0B056D1E0DE05B4504DD4FF0000294
:1034600005F1010504E003DA4FF00002A5F10105C2
:10347000002AECD002981199C0E90231C0E9004558
:1034800079E70000000014400000F03F3000000029
:103490000000F0430000E03F2DE9FF4F95B09B4650
:1034A0008946064600250FE2252877D100242746C5
:1034B000F84A0121059400E0044316F8013F203B3F
:1034C00001FA03F01042F7D130782A2811D06FF0BA
:1034D0002F033078A0F13002092A16D8059A44F05B
:1034E000020402EB820203EB42021044761C0590B8
:1034F000EFE759F8042B0592002A03DA504244F40E
:103500000054059044F00204761C30782E2816D121
:1035100016F8010F44F004042A280DD06FF02F0292
:103520003078A0F13003092B09D807EB870302EBB1
:103530004303C718761CF3E759F8047B761C3078F0
:103540006C280FD006DC4C2817D068280DD06A28CC
:1035500014D104E0742810D07A280FD10DE044F47F
:1035600000140AE044F4801401E044F4401472783A
:10357000824202D104F58014761C761C30786628CD
:103580000BD013DC582877D009DC002875D04528EB
:10359000F6D04628F4D047281AD19DE118E06328D8
:1035A00035D0642879D0652812D195E1702873D080
:1035B00008DC6728F1D069286FD06E280DD06F28FD
:1035C00006D1B5E073282CD0752875D0782874D032
:1035D0005A46179990476D1C75E1C4F302500228B2
:1035E00009D003280DD0D9F8001004280DD00D60A3
:1035F00009F1040967E1D9F80010EA17C1E900529E
:10360000F6E7D9F800100D80F2E70D70F0E719F831
:10361000041B8DF8001000208DF80100EA460120FF
:1036200003E059F804AB4FF0FF3061074FF00001A1
:1036300002D40DE008F101018846B9420FDA804555
:10364000F8DB1AF808100029F4D108E008F10101AC
:1036500088468142FADB1AF808100029F6D105984D
:103660005B46A0EB080721463846179A00F094FA0B
:10367000284400EB080507E04DE029E10DE01AF8C9
:10368000010B5A4617999047B8F10108F7D25B46EB
:1036900021463846179A13E142E00A220092C4F309
:1036A00002524FF0000A022A08D059F804CB032A2C
:1036B0004FEAEC710AD00DE029E02AE009F1070198
:1036C00021F00702F2E802C1914609E00FFA8CFCF2
:1036D0004FEAEC71042A03D14FFA8CFC4FEAEC71EB
:1036E000002907DA0A460021DCF1000C61EB020137
:1036F0002D2202E0220504D52B228DF80420012280
:1037000003E0E20701D02022F7E7904659E00A21C2
:1037100002E010220DE010214FF0000A00910BE0B2
:1037200010224FF0000A44F004040827009203E03E
:1037300008224FF0000A0092C4F30252022A05D078
:1037400059F804CB0021032A08D009E009F1070148
:1037500021F00702F2E802C1914605E01FFA8CFC55
:10376000042A01D10CF0FF0C4FF00008220728D5E5
:10377000702806D0009B83F0100353EA0A0305D09B
:103780000EE040228DF80420012208E05CEA0102EC
:1037900006D030228DF804208DF8050002229046D4
:1037A000009B83F0080353EA0A030AD15CEA010292
:1037B00001D1620705D530228DF804204FF00108B1
:1037C0007F1E582804D034A003900EA802900DE06C
:1037D00036A0F9E753466046009AFCF71FFF84467F
:1037E0000398825C0298401E029002705CEA01001D
:1037F000F0D1029806A9081A00F1200A600702D544
:1038000024F4803400E00127574502DDA7EB0A00CD
:1038100000E0002000EB0A01009005984144401AA6
:103820000590E00306D45B462146179A059800F000
:10383000B3F90544002706E001A85A46C05D179970
:1038400090476D1C7F1C4745F6DBE0030CD55B46BB
:103850002146179A059800F09FF9054404E03020AE
:103860005A46179990476D1C0099481E00900029F0
:10387000F5DC08E0029802995A460078491C02914A
:10388000179990476D1CBAF10001AAF1010AF1DC09
:1038900065E1000009280100303132333435363714
:1038A000383961626364656600000000303132338C
:1038B000343536373839414243444546000000002C
:1038C00000F058F90544761C307800287FF4ECAD00
:1038D00019B02846BDE8F08F620700D4062709F129
:1038E000070222F0070CFCE80223E14603F000483F
:1038F0005FEA080C02D00FF2702C0DE05FEA045C66
:1039000002D50FF2682C07E05FEAC47C02D00FF208
:10391000602C01E0AFF2700C4FF0FF3823F0004351
:10392000CDF850C065280CD006DC452809D04628C3
:103930001DD047283DD13DE0662818D067287ED1AC
:1039400038E00021112F01DB112000E0781CCDE9C7
:10395000000106A90EA8FFF7DDFCDDE90F010E9AB4
:1039600003910021009207F1010A04914DE04FF00C
:1039700000400097CDE9011006A90EA8FFF7CAFC88
:10398000DDE90F0203920E9B11990022DDF80CA0D5
:103990000093049211B9791C00EB010AB7EB0A00FD
:1039A00004D4C0F1FF3007F1010A0490AAEB07002C
:1039B000019044E0012F00DA01270021112F01DDE1
:1039C000112000E03846CDE9000106A90EA8FFF756
:1039D000A1FCDDE90F010E9A0391002104910092F0
:1039E000BA4621070CD40399514500DA8A46BAF148
:1039F000010F05DD009AAAF10101515C302908D0C0
:103A0000B84202DA10F1040F06DA0121CDE9011003
:103A100015E0AAF10101E9E7002805DC0499014459
:103A20000491AAEB000102E0411C514500DD8A46E9
:103A30000499401A401C01904FF00040029020076A
:103A400004D40198504501DBCDF8048000208DF8A6
:103A50004F0002980DF14F07B0F1004F25D02B20F9
:103A60000E9002984FF0020800280CDA40420290B3
:103A70002D200E9007E00A210298FCF7B9FD3031A5
:103A8000029007F8011DB8F10001A8F10108F2DC6D
:103A900002980028EFD1791E0E980870307800F057
:103AA000200040F0450007F8020D12A8C01B00F1ED
:103AB00007081498007800B1012000EB0A01019872
:103AC00001EBE07105984144401A401E0590E00367
:103AD00006D45B462146179A059800F05DF8054428
:103AE0001498007818B15A46179990476D1CE00356
:103AF00024D55B462146179A059800F04DF80544F9
:103B00001CE00498002807DBDDE90301884203DD9F
:103B10000098405C179901E0179930205A46904769
:103B2000049805F10105401C04900198401E019085
:103B300004D12E205A46179990476D1CBAF1000106
:103B4000AAF1010ADDDC05E017F8010B5A461799C6
:103B500090476D1CB8F10001A8F10108F4DC5B4648
:103B60002146179A0598ABE62D0000002B000000B7
:103B7000200000002DE9F041044600251E461746AE
:103B8000880404D405E039462020B0476D1C641E2B
:103B9000F9D52846BDE8F0812DE9F041044600251D
:103BA0001E469046C80301D5302700E02027880430
:103BB00004D505E041463846B0476D1C641EF9D572
:103BC0002846BDE8F081000000B5244B21F00042FA
:103BD00087B09A42DCBF0022134629DD204B9A426F
:103BE00008D140B94FF00100FFF78EFBFFF76DFBE6
:103BF00007B000BD03DBFFF765FB07B000BD02AAFD
:103C0000FFF752F810F0030104BF0DF1080C9CE817
:103C10000F000DD0012001290ED0022914D00DF182
:103C2000080C00909CE80F00FFF7D6FA07B000BD23
:103C3000FFF7FEF907B000BD0DF1080C00909CE8FD
:103C40000F00FFF7C9FA05E00DF1080C9CE80F0022
:103C5000FFF7EEF907B081F0004100BDFB21E93F1D
:103C60000000F07F38B504460D46E0B20090012216
:103C700069460020FEF77AFC9DF8000038BDFDF78C
:103C8000AFFBFEF7CFFDFEF7B5FAFEF71FFBFEF721
:103C900085FAFCF7A3FE01E0FCF7B4FEFCE70000A8
:103CA00000B5254B21F0004287B09A4203DC002288
:103CB000134600922BE0214B9A4208D140B94FF0B5
:103CC0000100FFF721FBFFF700FB07B000BD03DB9E
:103CD000FFF7F8FA07B000BD02AAFEF7E5FF10F003
:103CE00003014FF001000DD0012914D002291AD090
:103CF0000DF1080C9CE80F00FFF79AF907B081F06E
:103D0000004100BD0DF1080C00909CE80F00FFF78A
:103D100063FA07B000BD0DF1080C9CE80F00FFF737
:103D200087F907B000BD0DF1080C00909CE80F006A
:103D3000FFF752FAE2E70000FB21E93F0000F07FC5
:103D40002DE9F04106460F46FCF74EFD041E0D46D8
:103D500018BF0120284320F00040C0F17F6000F12F
:103D6000E040C00F0ED0301C18BF0120384320F0B7
:103D70000040C0F17F6000F1E040C00F04BF0120AF
:103D8000FFF7C2FA20462946BDE8F0810000000096
:103D900000000000010203040607080900000000FB
:103DA000010203044150505F496E6974004D435550
:103DB0004472697665725F496E6974005065726914
:103DC00070686572616C4472697665725F496E698C
:103DD00074004661726D65576F726B5F496E6974EE
:103DE0000046756E6374696F6E5F496E697400009A
:103DF0004C5555555555A53F7751C1166CC156BF09
:103E00009015CB19A001FA3EAD529C804F7E92BE18
:103E1000C4B1B4BD9EEE213ED43888BEE9FAA8BD37
:103E200000004054FB21F93F3163621A61B4D03D78
:103E30000000601A61B4D03D7370032E8A19A33B51
:103E40000000002E8A19A33BC14920259A837B39A3
:103E500000000000000000006E83F9A22915444E06
:103E6000D15727FCC0DD34F5999562DB4190433C86
:103E7000AB6351FE61C5BBDE3A6E24B7E0D24D4262
:103E8000EA2E49061C92D1091CEB1DFE3EA729B162
:103E9000F53582E88444BB2E26709CE9417E5FB4F0
:103EA00039D69139F43953838B5F849C3B28F9BD13
:103EB000FF97F81F0F9805DE8B112FEF1F6D0A5A21
:103EC000CF7E366DB709CB27663F464F2DEA5F9E02
:103ED000C7BA27757BF1E5EBF739073DEA92528ABD
:103EE000B15FFB6B085D8D1FA6F810111111813FAA
:103EF000D561C119A0012ABF7DFEB157E31DC73EA0
:103F0000EB9C2B8AE6E55ABE7CD5CF5A3AD9E53DE3
:103F10005465726D696E616C000000003C3F0008E2
:103F200000000020CC000000E83200080840000833
:103F3000CC00002084080000F832000800000000D7
:103F400010000000010000000024F4005345474722
:103F500045522052545400000000000002000000AE
:103F600002000000103F00083C0100200004000097
:103F70000000000000000000000000000000000041
:103F80000000000000000000000000000000000031
:103F900000000000103F00083C0500201000000059
:103FA0000000000000000000000000000000000011
:103FB0000000000000000000000000000000000001
:103FC00000000000000000000000000000000000F1
:103FD0000AD7233C000000000000000000000000A1
:103FE00000000000000000000000000000000000D1
:103FF00000000000000000000000000000000000C1
:084000000000000000000000B8
:0400000508000131BD
:00000001FF
