:020000040800F2
:1000000010090020450100082D1A0008811700087A
:10001000CD19000891020008172100080000000017
:10002000000000000000000000000000E51B0008C8
:1000300095020008000000002F1A0008131D000898
:100040005F0100085F0100085F0100085F01000810
:100050005F0100085F0100085F0100085F01000800
:100060005F0100085F0100085F0100085F010008F0
:100070005F0100085F0100085F0100085F010008E0
:100080005F0100085F0100085F0100085F010008D0
:100090005F0100085F0100085F0100089702000887
:1000A0005F0100085F0100085F0100085F010008B0
:1000B0005F0100085F0100085F0100085F010008A0
:1000C0005F0100085F0100085F0100085F01000890
:1000D0005F0100085F0100085F0100085F01000880
:1000E0005F0100085F0100085F0100085F01000870
:1000F0005F0100085F0100085F0100085F01000860
:100100005F0100085F0100085F0100085F0100084F
:100110005F0100085F0100085F0100085F0100083F
:100120005F0100085F0100085F0100085F0100082F
:10013000DFF80CD000F052F80048004767230008B1
:10014000100900200648804706480047FEE7FEE702
:10015000FEE7FEE7FEE7FEE7FEE7FEE7FEE7FEE777
:100160009D1D00083101000840EA01039B0703D0F0
:1001700009E008C9121F08C0042AFAD203E011F8E6
:10018000013B00F8013B521EF9D27047D2B201E0A8
:1001900000F8012B491EFBD270470022F6E710B58C
:1001A00013460A4604461946FFF7F0FF204610BDE5
:1001B00030B50B46014600202022012409E021FA37
:1001C00002F59D4205D303FA02F5491B04FA02F534
:1001D0002844151EA2F10102F1DC30BD064C074D8A
:1001E00006E0E06840F0010394E807009847103407
:1001F000AC42F6D3FFF7A0FFF8230008182400084C
:1002000070B5044600252068806800F00100F0B158
:100210002068806820F001002168886000F0D2FB2F
:1002200005460EE000F0CEFB401B022809D9A06A6B
:1002300040F01000A062E06A40F00100E06201209E
:1002400070BD2068806800F001000028EAD100201D
:10025000F6E7000010B5064906A001F05FFF00F0C8
:1002600029F801F08FFA01F0E3FB00F031F810BD3E
:100270009E23000843442025730D0A0010B500F0AA
:1002800025F801F08DFA01F0DFFB00F02DF810BD2C
:1002900000BFFEE7704710B5402000F0D7F980207E
:1002A00000F0D4F94FF4807000F0D0F901F090FB29
:1002B00010BD704710B5024902A001F02FFF10BD1C
:1002C000CC23000843442025730D0A00704700002A
:1002D00010B5024902A001F021FF10BDDB23000888
:1002E00043442025730D0A007047000038B50246CC
:1002F00000230020009000BF92F82400012801D1C3
:10030000022038BD012082F8240000BF4868072879
:1003100012D21068406B0C79641E04EB84051F2414
:10032000AC40A0430D796D1E05EB85050C68AC4013
:1003300020431468606327E048680D2812D21068D3
:10034000006B0C79E41F04EB84051F24AC40A04330
:100350000D79ED1F05EB85050C68AC402043146852
:10036000206311E01068C06A0C790D3C04EB840531
:100370001F24AC40A0430D790D3D05EB85050C68AD
:10038000AC4020431468E06208680A2812D3106861
:10039000C0680C780A3C04EB44050724AC40A04339
:1003A0000D780A3D05EB45058C68AC402043146888
:1003B000E0600FE0106800690C7804EB4405072446
:1003C000AC40A0430D7805EB45058C68AC4020435C
:1003D000146820610868102802D00868112827D105
:1003E000174C1068A0421ED11068806800F400000D
:1003F000F0B91068806840F400001468A0600868D4
:10040000102815D10F4800680F4CB0FBF4F000EB3A
:1004100080004000009002E00098401E009000988C
:100420000028F9D104E0906A40F020009062012396
:1004300000BF002082F8240000BF184661E70000DA
:10044000002401400C00002040420F002DE9F04143
:100450000446002700250026A84614B90120BDE85F
:10046000F081A06810B1207D00B100BFA06A30B952
:100470000020E06284F82400204600F097F820462F
:10048000FFF7BEFE0746A06A00F01000002873D1F7
:10049000002F7ED1A06A20F4885040F00200A062B4
:1004A0003F4AD4E90001904208D1E069B0F5402FFD
:1004B00002D14FF4002002E0E06900E0E06901436E
:1004C000207B41EA40000643A068B0F5807F02D05F
:1004D000A068012802D14FF4807000E0002005439D
:1004E000207D012811D1207B38B9A069401E4FF42E
:1004F000006141EA4030054307E0A06A40F0200077
:10050000A062E06A40F00100E0622068406820F4E8
:100510006940284321684860206880682149084074
:10052000304321688860A068B0F5807F02D0A06861
:10053000012802D14FF4807000E00020B0F5807FE8
:1005400003D1208A401E4FEA00582068C06A20F478
:10055000700040EA08002168C8622068806812497B
:100560000840B04209D10020E062A06A20F00200F9
:1005700040F00100A06211E00BE0A06A20F0020050
:1005800040F01000A062E06A40F00100E062012744
:1005900004E0A06A40F01000A062012738465EE740
:1005A000003C0140FDF7E1FFFE0E1FFF10B586B0D5
:1005B0000446002002900390049005901E49206894
:1005C000884237D100BF1D48806940F400701B4944
:1005D00088610846806900F40070019000BF00BF88
:1005E00000BF0846806940F01000886108468069B5
:1005F00000F01000019000BF00BF00BF08468069F6
:1006000040F0040088610846806900F00400019011
:1006100000BF00BF112002900320039002A90848E8
:1006200000F022F8C02002900320039002A90548A0
:1006300000F01AF806B010BD00240140001002407E
:1006400000100140000801407047000010B504464A
:1006500004480068204020B1024804602046FFF7AB
:10066000F3FF10BD140401402DE9F84702460023B2
:100670009C467BE14FF0010808FA03F4D1F80080B2
:1006800008EA0400A0427DD1DFF8F4A2D1F804808A
:10069000A8EB0A09D0453AD014DCB8F1030F50D0CA
:1006A00009DCB8F1000F31D0B8F1010F1CD0B8F15E
:1006B000020F49D120E0B8F1110F18D0B8F1120F94
:1006C00042D11EE0B9F5881F25D006DCB9F5803F80
:1006D00020D0B9F5801F37D11AE0B9F5001F18D026
:1006E000B9F5041F30D117E0D1F80CC02DE0D1F8D6
:1006F0000C8008F1040C28E0D1F80C8008F1080CFB
:1007000023E0D1F80C8008F10C0C1EE000BF00BF04
:1007100000BF00BF00BF00BFD1F80880B8F1000FD4
:1007200002D14FF0040C0BE0D1F80880B8F1010FB2
:1007300003D14FF0080C146102E04FF0080C546133
:1007400003E04FF0000C00E000BF00BFFF2801D81D
:10075000904601E002F104084646FF2802D84FEA1D
:10076000830803E0A3F108084FEA88084746D6F853
:1007700000804FF00F0909FA07F928EA09080CFA76
:1007800007F900E07AE048EA0908C6F80080D1F8E5
:10079000048008F08058B8F1805F6FD100BFDFF8A7
:1007A000E481D8F8188048F00108DFF8D891C9F83A
:1007B0001880C846D8F8188008F00108CDF80080E5
:1007C00000BF00BF4FEAB9384FEA930958F82950E3
:1007D0004FEA83784FEA18794FF00F0808FA09F8C2
:1007E00025EA0805DFF8A081424502D14FF0000854
:1007F00024E0DFF89881424502D14FF001081DE066
:10080000DFF88C81424502D14FF0020816E0DFF894
:100810008481424502D14FF003080FE0DFF8788170
:10082000424502D14FF0040808E0DFF870814245EC
:1008300002D14FF0050801E04FF006084FEA837936
:100840004FEA197908FA09F848EA0505DFF85081F6
:100850004FEA930948F82950D1F8048008F4803809
:10086000B8F5803F0BD1DFF83C81D8F8008048EA2A
:100870000008DFF83091C9F800800AE075E0DFF881
:100880002481D8F8008028EA0008DFF81891C9F818
:100890000080D1F8048008F40038B8F5003F0ED18C
:1008A000DFF8008108F10408D8F8008048EA000861
:1008B000DFF8F09009F10409C9F800800DE0DFF8D5
:1008C000E48008F10408D8F8008028EA0008DFF87E
:1008D000D49009F10409C9F80080D1F8048008F423
:1008E0008018B8F5801F0ED1DFF8B88008F108082D
:1008F000D8F8008048EA0008DFF8A89009F1080954
:10090000C9F800800DE0DFF89C8008F10808D8F8ED
:10091000008028EA0008DFF88C9009F10809C9F87E
:100920000080D1F8048008F40018B8F5001F0ED13B
:10093000DFF8708008F10C08D8F8008048EA000859
:10094000DFF8609009F10C09C9F800800DE0DFF8CC
:10095000548008F10C08D8F8008028EA0008DFF875
:10096000449009F10C09C9F800805B1CD1F80080A3
:1009700028FA03F8B8F1000F7FF47CAEBDE8F887E1
:10098000000011100010024000080140000C01405E
:10099000001001400014014000180140001C0140FB
:1009A0000800014000040140024693680B400BB16F
:1009B000012000E0002070470AB1016101E00B0452
:1009C0000361704701480068704700000000002084
:1009D00003480068034909780844014908607047E2
:1009E000000000200800002010B50848006840F012
:1009F000100006490860032000F0A8F8002000F06D
:100A000007F800F02BF8002010BD00000020024085
:100A100070B504460E4800784FF47A71B1FBF0F0DF
:100A20000C490968B1FBF0F5284600F07DFC08B1DF
:100A3000012070BD102C07D200222146501E00F06C
:100A400047F80548046001E00120F2E70020F0E7E4
:100A5000080000200C0000200400002008B500BFA2
:100A60001148806940F001000F498861084680699B
:100A700000F00100009000BF00BF00BF0846C06941
:100A800040F08050C8610846C06900F08050009076
:100A900000BF00BF00BF0549486820F0E06040F09B
:100AA0000070486000BF08BD001002400000014017
:100AB00001460846002809DB00F01F0301229A4086
:100AC00043099B0003F1E023C3F8002100BF7047F6
:100AD0002DE9F05F80460D461646002701F02EFBFB
:100AE000074639462A46334601F00700C0F1070A97
:100AF000BAF1040F02D94FF0040A01E0C0F1070A6D
:100B0000D14600F1040ABAF1070F02D24FF0000AF1
:100B100001E0A0F1030AD4464FF0010A0AFA09FAEB
:100B2000AAF1010A0AEA020A0AFA0CFA4FF0010BCA
:100B30000BFA0CFBABF1010B0BEA030B4AEA0B04BB
:100B40002146404601F002FBBDE8F09F00BF00F0E7
:100B50000702064B19684FF6FF031940044B0B437D
:100B600043EA0221014B196000BF70470CED00E021
:100B70000000FA05F8B5044600260025207800F0AC
:100B8000010000286BD000274348C06900F0805066
:100B900070B900BF4048C06940F080503E49C8610C
:100BA0000846C06900F08050009000BF00BF0127D8
:100BB0003A48006800F48070B0B93848006840F4E2
:100BC000807036490860FFF7FDFE064606E0FFF735
:100BD000F9FE801B642801D90320F8BD2F48006866
:100BE00000F480700028F2D02B48006A00F44075B1
:100BF0002DB3A08800F44070A84220D02648006A97
:100C000020F4407501202649086000200860224831
:100C1000056205F0010090B1FFF7D4FE064608E03A
:100C2000FFF7D0FE801B41F28831884201D90320B2
:100C3000D3E71948006A00F002000028F0D01648F7
:100C4000006A20F440706168084313490862012F6C
:100C500004D10846C06920F08050C86100BF2078E8
:100C600000F00200022807D10B48406820F4404001
:100C7000A168084308494860207800F01000102857
:100C800007D10548406820F48000616908430249A3
:100C900048600020A1E70000001002400070004002
:100CA0004004424270B504460D460CB9012070BDA7
:100CB0005A48006800F00700A8420ED25748006862
:100CC00020F007002843554908600846006800F0F6
:100CD0000700A84201D00120E9E7207800F00200D7
:100CE00002281DD1207800F00400042805D14C48CA
:100CF000406840F4E0604A494860207800F008000D
:100D0000082805D14648406840F46050444948608E
:100D10004348406820F0F000A1680843404948601B
:100D2000207800F0010078B36068012806D13C48C3
:100D3000006800F4003090B90120B8E7606802282C
:100D400006D13748006800F0007040B90120AEE7D6
:100D50003348006800F0020008B90120A7E73048D6
:100D6000406820F00300616808432D494860FFF7A0
:100D700029FE064609E0FFF725FE801B41F2883177
:100D8000884202D9032092E707E02548406800F036
:100D90000C006168B0EB810FEDD12048006800F0D5
:100DA0000700A8420ED91D48006820F0070028431C
:100DB0001A4908600846006800F00700A84201D000
:100DC000012074E7207800F00400042807D11448BB
:100DD000406820F4E060E1680843114948602078E9
:100DE00000F00800082808D10D48406820F4605041
:100DF000216940EAC1000A49486000F019F8084931
:100E00004968C1F30311074A515CC84006490860AC
:100E100006480068FFF7FCFD002048E7002002407C
:100E200000100240862300080C000020040000206F
:100E3000F0B585B00FF26C0C9CE8E01001A8A0E8BA
:100E4000E0101CA52D68009500210022002300243D
:100E50000020194D696801F00C05F5B1042D02D090
:100E6000082D19D101E0154819E001ADC1F3834601
:100E7000AC5D01F4803555B10F4D6D68C5F340454B
:100E80001DF805200D4D6543B5FBF2F302E00C4D56
:100E900004FB05F3184602E000BF084800BF00BF8E
:100EA00005B0F0BD02030405060708090A0B0C0D86
:100EB0000E0F1010010200000010024000127A0014
:100EC00000093D00F8B504460CB90120F8BD2078B2
:100ED00000F00100002878D0F848406800F00C00CD
:100EE00004280CD0F548406800F00C00082811D107
:100EF000F248406800F48030B0F5803F0AD1EF48F6
:100F0000006800F4003000285FD0606800285CD1E1
:100F10000120DBE700BF6068B0F5803F06D1E748FD
:100F2000006840F48030E549086028E0606858B9FE
:100F3000E248006820F48030E04908600846006814
:100F400020F4802008601AE06068B0F5A02F0BD173
:100F5000DA48006840F48020D849086008460068F4
:100F600040F4803008600AE0D448006820F4803003
:100F7000D24908600846006820F48020086000BF5D
:100F8000606888B1FFF71EFD054606E0FFF71AFD11
:100F9000401B642801D9032098E7C848006800F482
:100FA00000300028F2D010E0FFF70CFD054606E007
:100FB000FFF708FD401B642801D9032086E7BF48DE
:100FC000006800F400300028F2D1207800F0020020
:100FD000022857D1B948406800F00C0050B1B7481A
:100FE000406800F00C00082818D1B448406800F4AC
:100FF000803098B9B148006800F0020020B1206943
:10100000012801D0012061E7AC48006820F0F80019
:10101000616940EAC100A949086033E02069E8B18C
:101020000120A7490860FFF7CDFC054606E0FFF761
:10103000C9FC401B022801D9032047E79F480068EC
:1010400000F002000028F2D09C48006820F0F80070
:10105000616940EAC1009949086013E0002098499D
:101060000860FFF7AFFC054606E0FFF7ABFC401B4E
:10107000022801D9032029E79048006800F0020007
:101080000028F2D1207800F0080008282DD1A069AE
:10109000B8B101208B490860FFF794FC054606E0D3
:1010A000FFF790FC401B022801D903200EE783487C
:1010B000406A00F002000028F2D0012000F0C6FCD7
:1010C00013E000207F490860FFF77CFC054606E03E
:1010D000FFF778FC401B022801D90320F6E6774889
:1010E000406A00F002000028F2D1207800F00400ED
:1010F000042873D100277148C06900F0805070B98E
:1011000000BF6E48C06940F080506C49C861084615
:10111000C06900F08050009000BF00BF01276A48FE
:10112000006800F48070B0B96748006840F48070CF
:1011300065490860FFF746FC054606E0FFF742FCFC
:10114000401B642801D90320C0E65F48006800F412
:1011500080700028F2D000BFE068012806D157480F
:10116000006A40F001005549086227E0E06858B97C
:101170005248006A20F00100504908620846006A9F
:1011800020F00400086219E0E06805280BD14B4804
:10119000006A40F00400494908620846006A40F0CD
:1011A000010008620AE04548006A20F00100434956
:1011B00008620846006A20F00400086200BFE06888
:1011C000A0B1FFF7FFFB054609E0FFF7FBFB401B63
:1011D00041F28831884202D9032077E622E037487D
:1011E000006A00F002000028EFD012E0FFF7EAFBEF
:1011F000054608E0FFF7E6FB401B41F288318842D4
:1012000001D9032062E62D48006A00F002000028A0
:10121000F0D1012F05D12948C06920F0805027491D
:10122000C86100BFE069C8B32448406800F00C0002
:10123000082860D0E069022848D1002020490866CB
:10124000FFF7C0FB054606E0FFF7BCFB401B02288A
:1012500001D903203AE61948006800F00070002820
:10126000F2D1206AB0F5803F07D11448406820F4DD
:101270000030A168084311494860D4E908010843D7
:101280000E49496821F4741108430C494860012053
:101290000B490866FFF796FB054607E03DE0FFF7C0
:1012A00091FB401B022801D903200FE60348006888
:1012B00000F000700028F2D02FE000000010024083
:1012C0000000424280044242007000400020144965
:1012D0000866FFF777FB054606E0FFF773FB401B48
:1012E000022801D90320F1E50E48006800F00070E3
:1012F0000028F2D111E0E069012800D1E6E50948B3
:10130000466806F48031206A814204D106F47011E7
:10131000606A814201D00120D8E50020D6E50000B6
:10132000000042420010024070B504462546681E87
:10133000B0F1807F01D301200FE0681E4FF0E02163
:1013400048610F214FF0FF3000F000FF00204FF008
:10135000E021886107200861002070BD10B50346B8
:10136000002200BF93F83C00012801D1022010BDEB
:10137000012083F83C0000BF22F0FF00CC6840EA67
:10138000040222F440708C6840EA040222F4806077
:101390004C6840EA040222F400600C6840EA04024F
:1013A00022F480500C6940EA040222F400504C6997
:1013B00040EA040222F48040CC6940EA0402186842
:1013C000426400BF002083F83C0000BF00BFCEE7AE
:1013D00010B5024600BF92F83C00012801D102205E
:1013E00010BD012082F83C0000BF022082F83D00C1
:1013F000106843681068846823F07003086803432A
:1014000024F08004486804431068436010688460D6
:10141000012082F83D0000BF002082F83C0000BFA0
:1014200000BFDDE710B504460CB9012010BD94F8EB
:101430003D0028B9002084F83C00204600F00CF85C
:10144000022084F83D00211D206800F0EDFC012001
:1014500084F83D000020E9E708B5094A0168914297
:101460000DD100BF0749896941F40061054A9161C6
:101470001146896901F40061009100BF00BF08BDF9
:10148000002C0140001002402DE9F04104460D46B9
:1014900000BF94F83C00012802D10220BDE8F08191
:1014A000012084F83C0000BF022084F83D00206841
:1014B000866826F0770626F47F46206886602868CE
:1014C000502833D00CDC202850D004DC00284BD02E
:1014D000102851D149E0302849D040284CD139E07A
:1014E00060282DD0702807D0B0F5805F03D0B0F50C
:1014F000005F41D10DE040E0D5E902136A68206841
:1015000000F0F1FC2068866846F077062068866067
:1015100033E0D5E902136A68206800F0E4FC206833
:10152000806840F480402168886026E0EA68696845
:10153000206800F0C9FD5021206800F0DFFC1CE0AD
:10154000EA686968206800F0D2FD6021206800F038
:10155000D5FC12E0EA686968206800F0B5FD40211A
:10156000206800F0CBFC08E000BF00BF00BF296886
:10157000206800F0C3FC00E000BF00BF012084F839
:101580003D0000BF002084F83C0000BF00BF85E79D
:1015900010B586B004460020029003900490059098
:1015A0000E492068884217D100BF0D48806940F07D
:1015B00004000B4988610846806900F0040001902E
:1015C00000BF00BF4FF4E06002900220039005903E
:1015D00002A90448FFF748F806B010BD002C0140EE
:1015E000001002400008014070B504460D46164642
:1015F00000BF94F83C00012801D1022070BD0120F9
:1016000084F83C0000BF022084F83D0036B1042E6F
:101610001BD0082E31D00C2E5ED145E02946206823
:1016200000F076FC2068806940F00800216888613D
:101630002068806920F00400216888612068806942
:10164000296908432168886147E02946206800F03D
:1016500097FC2068806940F40060216888612068F8
:10166000806920F480602168886120688069296928
:1016700040EA0120216888612FE02946206800F0B7
:10168000BDFC2068C06940F008002168C86120687E
:10169000C06920F004002168C8612068C069296918
:1016A00008432168C86118E02946206800F0E2FC80
:1016B0002068C06940F400602168C8612068C06982
:1016C00020F480602168C8612068C069296940EA07
:1016D00001202168C86100E000BF00BF012084F83C
:1016E0003D0000BF002084F83C0000BF00BF85E73C
:1016F00010B504460CB9012010BD94F83D0028B97E
:10170000002084F83C00204600F00CF8022084F809
:101710003D00211D206800F087FB012084F83D007A
:101720000020E9E77047000070B504460E4601222C
:101730003146206800F0C6FB0F492068884203D07C
:101740000E492068884201D1012000E0002028B124
:101750002068406C40F4004021684864206880683C
:1017600000F00705062D05D02068006840F0010054
:1017700021680860002070BD002C01400034014049
:1017800000BFFEE710B5034903A000F0C7FC00F05E
:1017900031FB10BDA723000843442025730D0A0028
:1017A000704700000EB50020009001900290114893
:1017B00011490860002110488160017301754FF4E0
:1017C0006021C16100200C49486001210A48016183
:1017D000FEF73CFE08B1FEF76CFD062000900120EC
:1017E0000190029069460448FEF780FD08B1FEF7BB
:1017F00060FD0EBD002401409000002000B585B0C2
:101800000020019002900390049000BF2D48806951
:1018100040F020002B4988610846806900F02000D4
:10182000009000BF00BF00BF0846806940F0100074
:1018300088610846806900F01000009000BF00BF7A
:1018400000BF0846806940F004008861084680694E
:1018500000F00400009000BF00BF00BF0846806990
:1018600040F0080088610846806900F00800009098
:1018700000BF00BF00224FF460411348FFF79CF8FF
:101880004FF46040019001200290039003200490E7
:1018900001A90D48FEF7E8FE4FF4E07001900B48F7
:1018A00002900020039001A90948FEF7DDFE002206
:1018B00011461720FFF70CF91720FFF7F9F805B0CC
:1018C00000BD000000100240000C0140000031107B
:1018D0000010014000B595B00020119012901390B7
:1018E00014900F9010901C2108A8FEF756FC2021A0
:1018F0006846FEF752FC33483349086000204860D0
:101900000021314881604FF4E151C1600021016143
:10191000416180218161FFF785FD08B1FEF7C9FCB7
:101920004FF48050119011A92748FFF7ADFD08B181
:10193000FEF7BFFC2448FFF7DBFE08B1FEF7B9FC59
:1019400000200F9010900FA91F48FFF741FD08B12C
:10195000FEF7AFFC60200890002009900A900B90E1
:101960000C900D900E90002208A91748FFF73CFE3E
:1019700008B1FEF79EFC042208A91348FFF734FEC5
:1019800008B1FEF796FC082208A90F48FFF72CFEC5
:1019900008B1FEF78EFC00200090019002900390A9
:1019A00004904FF4005005900020079069460648C7
:1019B000FFF7D4FC08B1FEF77CFC0348FFF7E8FD15
:1019C00015B000BD002C0140C000002000BFFEE7A4
:1019D00070B500240025002640210F48FEF7E4FFE3
:1019E000044680210C48FEF7DFFF05464FF4807166
:1019F0000948FEF7D9FF064644EA450040EA86005A
:101A000006490870087800F025F90448017804A018
:101A100000F084FB70BD0000001001408800002031
:101A200048414C3A25640D0A000000007047704799
:101A300010B5024902A000F071FB10BDB6230008EA
:101A400043442025730D0A007047000008B508497B
:101A50000968C9084FF47A72B1FBF2F14143009171
:101A600000BF00BF00994A1E00920029F9D108BDAD
:101A70000C0000202DE9F04704468946164600F088
:101A80004CFB04EB4401564800EBC100007D00F024
:101A90000300022827D004EB4401514800EBC100A9
:101AA000D0F8108004EB44014D4800EBC100C06841
:101AB000A8EB0000451E002D06DA04EB440148485F
:101AC00000EBC10080680544AE420CDD04EB44012C
:101AD000434800EBC100007D00F0030010B9002076
:101AE000BDE8F0872E460EB90020F9E7002700BFB9
:101AF00004EB44013A4800EBC100D0F8108004EB3D
:101B00004401374800EBC100C068A8EB0000451E47
:101B1000002D06DA04EB4401314800EBC100806877
:101B2000054404EB44012E4800EBC10004EB4402E1
:101B300081682B4800EBC200C068081AA84201DD8A
:101B400028460CE004EB4401254800EBC10004EBFF
:101B500044028168224800EBC200C068081A0546AA
:101B6000B54201DA284600E03046054604EB44025F
:101B70001B4901EBC20104EB44034A68184901EB1D
:101B8000C301C96850182A464946FEF7EDFA2F44AA
:101B9000A944761B04EB4401114800EBC100C06866
:101BA000411904EB44020E4800EBC200C16004EB93
:101BB00044010B4800EBC100C16804EB4402084833
:101BC00000EBC2008068814206D1002104EB440290
:101BD000034800EBC200C160002E89D138467FE780
:101BE000280000207047000041F28833984200DD51
:101BF000184641F28833994200DD194641F2883394
:101C00009A4200DD1A46054B1B685863034B1B685C
:101C10009963024B1B68DA6370470000C000002024
:101C200070B504460D46164622464FF4005108484A
:101C3000FEF7C2FE2A464FF480410548FEF7BCFE7F
:101C400032464FF400410248FEF7B6FE70BD000078
:101C5000000C014010B50446072C4DD2DFE804F01B
:101C60004C10281C4004340000224FF4FA71104636
:101C7000FFF7BAFF002211460120FFF7D1FF46E02F
:101C80004FF4FA7200210846FFF7AEFF002211461A
:101C90000120FFF7C5FF3AE04FF4FA720021084631
:101CA000FFF7A2FF002201211046FFF7B9FF2EE047
:101CB000002211464FF4FA70FFF796FF002201212F
:101CC0001046FFF7ADFF22E0002211464FF4FA70F4
:101CD000FFF78AFF012200210846FFF7A1FF16E067
:101CE00000224FF4FA711046FFF77EFF0122002117
:101CF0000846FFF795FF0AE0002211461046FFF75D
:101D000073FF002211461046FFF78AFF00BF00BF95
:101D100010BD10B5FEF75CFE10BD00B595B02821D2
:101D20000BA8FEF73AFA142106A8FEF736FA182196
:101D30006846FEF732FA01200B9000040C90002058
:101D40000D9001200F9002201290C10313914FF4C7
:101D5000E01114910BA8FFF7B5F808B1FEF7A9FA46
:101D60000F20069002200790002008904FF480601A
:101D7000099000200A90022106A8FEF793FF08B1FF
:101D8000FEF797FA02200090800302906846FEF763
:101D9000F1FE08B1FEF78DFA15B000BD11480068DC
:101DA00040F001000F490860084640680E490840AD
:101DB0000C494860084600680C4908400949086019
:101DC0000846006820F4802008600846406820F437
:101DD000FE0048604FF41F008860C8030449086093
:101DE00070470000001002400000FFF8FFFFF6FE01
:101DF00008ED00E010B500210A48FFF795FC04212A
:101E00000848FFF791FC08210648FFF78DFC0020E9
:101E100004490968486303490968886301490968F6
:101E2000C86310BDC000002010B50268204B984266
:101E30000ED0204B98420BD0B0F1804F08D01E4BF3
:101E4000984205D01D4B984202D01D4B984203D1B9
:101E500022F070024B681A43154B98420ED0154B76
:101E600098420BD0B0F1804F08D0134B984205D068
:101E7000124B984202D0124B984203D122F4407286
:101E8000CB681A4322F080034C6943EA04020260E3
:101E90008B68C3620B688362054B984202D0054B86
:101EA000984201D10B6903630123436110BD000017
:101EB000002C0140003401400004004000080040B4
:101EC000000C004030B501F01F05012404FA05F3B1
:101ED000046A9C430462046A01F01F0502FA05F5D6
:101EE0002C43046230BD30B50C46816821F47F413B
:101EF00042EA032525432943816030BD0A468168B3
:101F000021F0700142F0070319438160704700001F
:101F100030B5056A25F001050562026A43688469E7
:101F200024F0700424F003040D682C4322F0020214
:101F30008D682A43104DA84200D103E00F4DA842FE
:101F400006D100BF22F00802CD682A4322F0040225
:101F5000094DA84202D0094DA84207D123F480734D
:101F600023F400734D692B438D692B4343608461D7
:101F70004D684563026230BD002C014000340140D1
:101F800030B5056A25F010050562026A4368846968
:101F900024F4E04424F440740D6844EA052422F05B
:101FA00020028D6842EA0512124DA84200D103E0DA
:101FB000114DA84207D100BF22F08002CD6842EA4D
:101FC000051222F040020B4DA84202D00A4DA84251
:101FD00009D123F4806323F400634D6943EA850348
:101FE0008D6943EA8503436084614D6885630262BD
:101FF00030BD0000002C01400034014030B5056ABE
:1020000025F480750562026A4368C46924F070048F
:1020100024F003040D682C4322F400728D6842EA18
:102020000522124DA84200D103E0114DA84207D16C
:1020300000BF22F40062CD6842EA052222F48062E9
:102040000A4DA84202D00A4DA84209D123F4805378
:1020500023F400534D6943EA05138D6943EA0513E0
:102060004360C4614D68C563026230BD002C01400D
:102070000034014030B5056A25F480550562036AD5
:102080004468C26922F4E04222F440720D6842EAD8
:10209000052223F400538D6843EA0533084DA84216
:1020A00002D0084DA84204D124F480444D6944EA8A
:1020B00085144460C2614D680564036230BD000050
:1020C000002C01400034014030B50B461446026A32
:1020D000056A25F001050562816921F0F00141EAF8
:1020E000041122F00A021A438161026230BD30B548
:1020F0000B461446056A25F0100505628169026ADF
:1021000021F4704141EA043122F0A00242EA0312B4
:102110008161026230BD00BFFEE770470FB4054B1E
:1021200010B503A9044A029800F034F810BC5DF819
:1021300014FB00004D2300088C00002002480068BA
:10214000C0F30220704700000CED00E010B500283D
:1021500004DB0A07130E054A135406E00A07140E9F
:10216000034A00F00F031B1FD45410BD00E400E02D
:1021700018ED00E002E008C8121F08C1002AFAD1D9
:1021800070477047002001E001C1121F002AFBD1F7
:10219000704700002DE9FF4F8BB09A460F46054669
:1021A000002606E025280BD052460D9990476D1C5D
:1021B000761C28780028F5D10FB03046BDE8F08FA6
:1021C0000024A0460122604900E0044315F8013FC5
:1021D000203B02FA03F00842F7D128782E2817D1C5
:1021E00015F8010F44F004042A280ED06FF02F02D6
:1021F0002878A0F1300109290AD808EB880102EB00
:10220000410100EB01086D1CF2E757F8048B6D1CCF
:10221000287869283ED006DC0028CDD063280BD072
:10222000642804D136E0732810D075284BD052466C
:102230000D999047761C85E017F8040B8DF8000087
:1022400000208DF80100E946012003E057F8049BC7
:102250004FF0FF3061074FF0000401D40AE0641C26
:1022600044450DDA8442FADB19F804100029F6D14E
:1022700006E0641C8442FCDB19F804100029F8D144
:10228000264404E019F8010B52460D999047641E4C
:10229000F8D257E001CF4FF00A0B002802DA404293
:1022A0002D2102E0210504D52B218DF824100121D8
:1022B00003E0E10705D02021F7E70DF1200908919F
:1022C0000CE00021F9E701CF4FF00A0BF9E759467E
:1022D000FDF76EFF01F1300209F8012D0028F6D15B
:1022E000ADEB090000F1200B600701D44FF00108AD
:1022F000D84502DDA8EB0B0000E00020804600245A
:1023000006E009A85246005D0D999047641C761CB2
:1023100008988442F5DB04E0302052460D9990473E
:10232000761CB8F10001A8F10108F5DC05E019F808
:10233000010B52460D999047761CBBF10001ABF1A1
:10234000010BF4DC6D1C34E70928010038B50446A4
:102350000D46E0B20090012269460020FFF78AFB9B
:102360009DF8000038BDFEF73FFBFFF7D6FCFFF7F6
:1023700045FAFFF7AFFAFFF715FAFDF76BFF01E03B
:10238000FDF77CFFFCE700000000000000000102F8
:10239000030406070809000000000102030441507D
:1023A000505F496E6974004D435544726976657299
:1023B0005F496E6974005065726970686572616C1E
:1023C0004472697665725F496E6974004661726D28
:1023D00065576F726B5F496E69740046756E637402
:1023E000696F6E5F496E6974000000005465726D1C
:1023F000696E616C000000001824000800000020D5
:102400009000000074210008A8240008900000201B
:102410008008000084210008000000001000000077
:10242000010000000024F400534547474552205264
:1024300054540000000000000200000002000000F0
:10244000EC23000800010020000400000000000050
:10245000000000000000000000000000000000007C
:10246000000000000000000000000000000000006C
:10247000EC23000800050020100000000000000010
:10248000000000000000000000000000000000004C
:10249000000000000000000000000000000000003C
:0824A000000000000000000034
:0400000508000131BD
:00000001FF
